:1000000008308A0000280000FF00030E8301A100D1
:100010000A08A0008A010408A2007708A300780853
:10002000A4007908A5007A08A60003170D08031399
:10003000A70003170F080313A80003170C080313E6
:10004000A90003170E080313AA00831383128B1E43
:100050002B280B194C28220884002308F7002408B9
:10006000F8002508F9002608FA00270803178D0074
:100070000313280803178F000313290803178C00A4
:1000800003132A0803178E00031320088A00210E89
:100090008300FF0E7F0E09008A110A1257280A10EA
:1000A0008A100A11820728340F3401340634AC1B3D
:1000B0006A283A082C02031C6A28031D63283908A1
:1000C0002B02031C6A28BF123F0883168700831285
:1000D00087167028BF123F08831687008312871285
:1000E000B90A0319BA0ABA08031D7A283908123C5A
:1000F00003187C28BA01B9010B118A110A122B28A6
:100100000C296533BD124C3220104539F237BD122F
:100110004C328A06D4326D38BD124C320000BE30EB
:100120008400831300080319A2280630F800F701A1
:10013000F70B9828F80B97287B30F700F70B9E28D1
:10014000800B9528080083164518AA2883120812E8
:10015000AC2883168312081683160812C518B42813
:1001600083128812B6288316831288168316881283
:100170004519BE2883120813C02883168312081756
:1001800083160813C519C82883128813CA28831632
:100190008312881783168813891083128914831693
:1001A000891083128910080083160911831209111E
:1001B0008316C208031DE02883120911E228831662
:1001C0008312091583160911A630F700F70BE628EC
:1001D00000008910831289108316430EC4000F306B
:1001E000C4054408C5008312A320831643080F39B1
:1001F000C400C5008312A3200800831608128312CE
:100200000812831688128312881283160813831229
:100210000813831688138312881383160911831217
:10022000091183168910831289100F308316BE00BE
:1002300083128F2001308316B4003408033C031C62
:100240002D290330C5008312A32005308316BE007C
:1002500083128F208316B40A1D290230C500831231
:10026000A3208316B4013408033C031C442934083A
:1002700083124F208316B500C2013508C3008312D4
:10028000D4208316B40A332983128A150A122C2823
:100290008E30F70083163708F8003608F900FA01A7
:1002A000F808031D5D297908F800F9010830F70204
:1002B000F808031D5D29F70165290310F81B64295F
:1002C000F90DF80DF7035D29F81383120800831662
:1002D00036080319D829BE003A080319D829BE07E1
:1002E000031879297F30BE02031CD8290319D829A5
:1002F0007D298130BE070318D8293E08F700F80190
:10030000F901FA013708C200C2173808C1003908DC
:10031000C0001830BE00BF01401CA6293D08FA07E6
:10032000031C9829F90A031D9829F80A0319BF1715
:100330003C08F907031C9F29F80A0319BF173B085B
:10034000B800B8173808F8070318BF17BF0DF80C26
:10035000F90CFA0CC20CC10CC00C0310BE0B8B299B
:100360000130F7070318D829F81BBD29C20DFA0D73
:10037000F90DF80DF7030319D829C21FCE29FA0A7F
:10038000031DCE29F90A031DCE29F80A031DCE2923
:10039000F80CF90CFA0CF70A0319D8293708BF0032
:1003A0003B08BF06BF1FD629F817DC29F813DC2944
:1003B000F701F801F901FA01831208008030831C6B
:1003C000E4298316BD0683128316C201C3013908CE
:1003D000C1003D08C10638080319D22AC000F70041
:1003E0003C080319DB2AC0020319772A031C352AAB
:1003F0003D08C600C6173E08C5003F08C400C3013B
:100400000310C60CC50CC40CC30CC00BFF29C11FC4
:100410000C2A4214EF2A421040104216BB308400CE
:100420008313042B4212C11B1F2A401C2A2AC60C0C
:10043000C50CC40CC30CF70A0319EA2A2A2AC61BE6
:100440002D2A0310C30DC40DC50DC60DF7030319E6
:10045000EA2A1F2A4217972A42133908C100C11FEE
:10046000332AC617E32AC613E32A3C08C000F70064
:100470003808C0023908C600C6173A08C5003B084C
:10048000C400C3010310C60CC50CC40CC30CC00BC4
:10049000412AC11F4E2AC214EF2AC2104010C216B0
:1004A000BF3084008313042BC212C11B612A401C7D
:1004B0006C2AC60CC50CC40CC30CF70A0319EA2A33
:1004C0006C2AC61B6F2A0310C30DC40DC50DC60DC3
:1004D000F7030319EA2A612AC217972AC2133D08B3
:1004E000C100C11F752AC617E32AC613E32A3D08B7
:1004F000C600C6173E08C5003F08C400C11F842AB5
:10050000C6134215EF2A4211C3014010BB308400CC
:100510008313042BC11BAD2A3908C100401C972A44
:10052000C60CC50CC40CC30CF70A0319EA2AC31F76
:10053000A82AC40A031DA82AC50A031DA82AC60A98
:10054000031DA82AC60CC50CC40CF70A0319EA2A15
:10055000421B2C2AC21B6E2ACC2A8030C606C61F1C
:10056000B52AEF2A3D08C100C22A3908C100C608D1
:10057000031DC22AC508031DC22AC408031DC22ABE
:10058000F701E32AC61BCC2A0310C30DC40DC50D09
:10059000C60DF70BC22AEA2AC11FD02AC617E32AC2
:1005A000C613E32A3C08F7003D08C6003E08C50014
:1005B0003F08C400E32A3808F7003908C6003A08A3
:1005C000C5003B08C4004608F8004508F900440887
:1005D000FA00222BF701F801F901FA01222BC301DD
:1005E000C409C509C609C309C30A031DFD2AC40AF3
:1005F000031DFD2AC50A0319C60A42180B2AC21890
:100600004D2A4219832AB22A0008C407031C0E2B64
:10061000C50A031D0E2BC60A0319401484030008E3
:10062000C507031C162BC60A0319401484030008CF
:10063000801F803AC60703184014421A122AC21AB1
:10064000542A8A2A831208008E30F700831638084D
:10065000F7023908F9003A08F800F917F708031902
:100660003C2B0310F908031D382BF80803193C2B09
:10067000F90CF80CF70B312BB91F432BF809F909CA
:10068000F80A0319F90A8312080083163508370699
:100690008039B900B51F512BB409B509B40A031943
:1006A000B50AB71F582BB609B709B60A0319B70A16
:1006B0001030B800F701FA01B50CB40C031C662B1E
:1006C0003608F7070318FA0A3708FA07FA0CF70C86
:1006D000F90CF80CB80B5C2BB91F732BF809F9094E
:1006E000F80A0319F90A83128A150A1246298E306C
:1006F000F70083163908F8003808F900FA01B91F25
:10070000862BF809F909F90A0319F80AF808031DF4
:10071000932B7908F800F9010830F702F808031D57
:10072000932BF7019C2B0310F81B9A2BF90DF80D56
:10073000F703932BB91FF8138312080083163D08A3
:100740000C3A83120319AE2B063A0319BA2B073A57
:100750000319BA2B053A0319D22BD92B8316C201E0
:100760000130C3008312D42002308316BE008312EE
:100770008F20E02B01308316BE000230BF003F0BFC
:10078000C22BC52B4030C000C62BC00101303E0239
:10079000C00740088038C100C2014108C30083126D
:1007A000D420E02B8316C2011030C3008312D42062
:1007B000E02B01308316C2003D08C3008312D42011
:1007C00008000B088316B50083128B1383160317DA
:1007D0008C170C14000000000313B51FF22B8312BA
:1007E0008B17831603182B2C831203170C087F39E1
:1007F00083160313B500831203170D088316031322
:10080000B600831203170F0883160313B7003508C9
:10081000BD0083129E2383163608831203178D00B2
:10082000831603133708831203178F0003130B0873
:100830008316B80083128B13831603178C170C14BE
:10084000000000000313B81F282C83128B17831697
:10085000B40B2B2C592C831203170C0D0E0D7F3962
:1008600083160313B500831203170D0883160313B1
:10087000B600831203170F0883160313B700350859
:10088000BD0083129E2383163608831203178D0042
:10089000831603133708831203178F008D0A031979
:1008A0008F0A031083160313B40B572C592C831291
:1008B000E12B831208008316BC010408BB003C1026
:1008C000831B3C14B51F6C2CBB173B1EBB0AB40921
:1008D000B509B40A0319B50A350EF038B700B707E1
:1008E000E23EB800323EBA0035080F39B807B80703
:1008F000BA07E93EB900B907B907340E0F39B9078D
:10090000BA07B90DBA0DBA09BA0D34080F39BA07CA
:10091000B70D0730B6000A30BA07B903031C8C2C98
:10092000B907B803031C902CB807B703031C942C19
:10093000B707B603031C982CB63084008313073026
:100940003B053B1384033B05031DAD2C3B1A840A76
:100950003B1AAD2C2030F700CA2C8407BA300402B1
:1009600003193B170008F700031DBE2C3B1BBE2CD0
:100970003B1ADA2CBB19BE2C2030C92CBB1FC62C4D
:100980002D30F70084033B13BB13CA2CBB153B125D
:100990003030F707B5010408B4003510831B351457
:1009A0007708BD0083129E238316340884008313C6
:1009B00035188317840A3B1FAE2C83120800831658
:1009C000BC010408BB003C10831B3C14B51FF02C79
:1009D000BB173B1EBB0AB409B509B40A0319B50A13
:1009E000350EF038B700B707E23EB800323EBA0025
:1009F00035080F39B807B807BA07E93EB900B90793
:100A0000B907340E0F39B907BA07B90DBA0DBA09CB
:100A1000BA0D34080F39BA07B70D0730B6000A30DF
:100A2000BA07B903031C102DB907B803031C142D12
:100A3000B807B703031C182DB707B603031C1C2DFA
:100A4000B6308400831307303B053B1384033B051A
:100A5000031D312D3B1A840A3B1A312D2030F7003B
:100A60004E2D8407BA30040203193B170008F70023
:100A7000031D422D3B1B422D3B1A6B2DBB19422DF2
:100A800020304D2DBB1F4A2D2D30F70084033B1322
:100A9000BB134E2DBB153B123030F707B5010408D0
:100AA000B4003510831B35147708BD00831240084D
:100AB000840083134118831783163D088000840A3D
:100AC00080018312C00A0319C10A83163408840006
:100AD000831335188317840A3B1F322D83120800B5
:100AE000800803198D2D8316B5010408B400351054
:100AF000831B3514000883120C1E7C2D990083166D
:100B000034088400831335188317840A031D8B2D42
:0C0B10008312850A83168312702D0800E2
:1010000003081F3983000A3083169900A630980020
:10101000903083129800AC01AB01AE01AD01B0017C
:10102000AF01B201B101B401B301B601B501BA011A
:10103000B901FF30BF00C101C00183161F149F1406
:101040001F159F1107309C0083131F109F141F1141
:101050009F118A118312FD288A150A308316BE005B
:101060008A1183128F208A1583161F1383121F1370
:101070009F1383169F1783121F1483160108C73905
:10108000083881000030F800063883129200FF30E3
:101090008316920083123F113F0883168700831244
:1010A00007110C309700803095001708CF39970052
:1010B0008B16C0308B040030F8001F08C739780445
:1010C0009F001030F700F70B632800001F151F1951
:1010D00067281E08FA0083161E088312EA001E08FD
:1010E000EB008316B70083126A088316B6008A11D4
:1010F000831248218A157A088316B9007908B80046
:101100007808B7007708B6000C30BD003030BC005E
:101110004030BB007A30BA008A11831267218A15E9
:101120007A08ED007908EC007808EB007708EA000F
:1011300083106D088316BB0083126C088316BA00F7
:1011400083126B088316B90083126A088316B800ED
:10115000BF01BE016030BD008330BC008A11831224
:10116000DE218A157A088316BB007908BA00780850
:10117000B9007708B8008A11831224238A157908E8
:10118000B4007808B3001030F8001F08C73978049D
:101190009F001030F700F70BCB2800001F151F1918
:1011A000CF281E08FA0083161E088312EA001E08C4
:1011B000EB008316B70083126A088316B6008A1103
:1011C000831248218A157A088316B9007908B80075
:1011D0007808B7007708B6009030BD003E30BC00FC
:1011E0007A30BB007D30BA008A11831267218A15DC
:1011F0007A088316BB007908BA007808B900770826
:10120000B8008A11831224238A157908BE00780851
:10121000BD000830F8001F08C73978049F0010305F
:10122000F700F70B112900001F151F191529831648
:101230001E088312B7001E08B8003808F9003708E6
:10124000F800F90CF80CF90CF80CF90C780895007A
:10125000F90C790C3039F7001708CF39770497006B
:101260003D083302B5003408B6003E08031C3E0FAB
:10127000B60236088316B500831235088316B4000B
:10128000B7010A30B6008A118312452B8A157908F6
:10129000AE007808AD0036088316B9008312350811
:1012A0008316B8008A11831277238A157A08831669
:1012B000B9007908B8007808B7007708B600CD30D3
:1012C000BD00CC30BC004C30BB007B30BA008A1172
:1012D000831267218A157A08ED007908EC007808F6
:1012E000EB007708EA0030088316B90083122F0854
:1012F0008316B8008A11831277238A1583107A081F
:101300008316BB007908BA007808B9007708B800DE
:1013100083126D088316BF0083126C088316BE000B
:1013200083126B088316BD0083126A088316BC0003
:101330008A118312DE218A157A088316BB00790888
:10134000BA007808B9007708B8008A1183122423FC
:101350008A157908B0007808AF003D083B02EA0022
:101360003C08EB003E08031C3E0FEB026B088316A3
:10137000B70083126A088316B6008A1183124821C7
:101380008A157A088316B9007908B8007808B7007A
:101390007708B600CD30BD00CC30BC004C30BB006F
:1013A0007B30BA008A11831267218A157A08831666
:1013B000BB007908BA007808B9007708B8008A112C
:1013C000831224238A157908B2007808B1003E08F8
:1013D000BC003D08BB002F082D07EA002E08EB00DB
:1013E00030080318300FEB0731086A07AB006B08B1
:1013F000AC0032080318320FAC07803003178D00A1
:1014000000308F000310053083160313B4008A11D7
:101410008312E1238A151030840034088316B50046
:10142000831233088316B4008A1183125B248A1551
:10143000843003178D0000308F00031007308316AF
:101440000313B4008A118312E1238A15103084003B
:1014500036088316B500831235088316B4008A1146
:1014600083125B248A15893003178D0000308F00AA
:101470000310073083160313B4008A118312E1238B
:101480008A15103084003E088316B50083123D088B
:101490008316B4008A1183125B248A156430831684
:1014A000BE008A1183128F208A15C1014230C0000C
:1014B000103084003C088316B50083123B08831665
:1014C000B4008A118312DF248A154230840083130A
:1014D0008A1170258A150D300C1E6C2A99000A306D
:1014E0000C1E702A9900C101A030C0001030840089
:1014F00036088316B500831235088316B4008A11A6
:101500008312DF248A15A030840083138A1170258A
:101510008A150D300C1E8A2A99000A300C1E8E2A5C
:101520009900C1015630C000103084003408831681
:10153000B500831233088316B4008A118312DF24A6
:101540008A155630840083138A1170258A150D3050
:101550000C1EA82A99000A300C1EAC2A99005B28A0
:02156000630026
:02400E000A2F77
:00000001FF
;PIC16F877A
;CRC=6A8D  CREATED="07-dez-21 16:04"
